:020000040800F2
:1000000000200020C94800083D2000083F200008CB
:1000100000000000000000000000000000000000E0
:100020000000000000000000000000004120000867
:1000300000000000000000004320000845200008E8
:100040001949000800000000194900081949000872
:1000500019490008194900081949000819490008F8
:100060000000000019490008194900081949000852
:100070001949000819490008194900080000000042
:10008000194900080000000000000000194900089C
:100090000000000019490008194900081949000822
:1000A00019490008194900081949000819490008A8
:0800B0004D20000800000000D3
:1000B8000448054B10B5834203D0044B002B00D0F5
:1000C800984710BD1000002010000020000000001C
:1000D80006480749091A8B10C90FC91810B54910E5
:1000E80003D0044B002B00D0984710BD100000200F
:1000F800100000200000000010B5074C2378002BEA
:1001080009D1FFF7D5FF054B002B02D0044800E0CA
:1001180000BF0123237010BD100000200000000064
:100128001C490008054B10B5002B03D004490548AD
:1001380000E000BFFFF7CCFF10BDC0460000000084
:10014800140000201C49000810B583070AD00300DA
:10015800032102E001330B4205D01A78002AF9D1B5
:10016800181A10BD030019680C4A0D4C8A188A43E6
:1001780022420FD15968094A04338A188A43224215
:1001880008D15968054A04338A188A432242F1D0B3
:1001980000E001331A78002AFBD1E1E7FFFEFEFEFA
:1001A8008080808070B50D4B0D4D5E1BB610AB4244
:1001B80005D0002408CD01349847A642FAD804F0A7
:1001C800A9FB084B084D5E1BB610AB4205D00024B6
:1001D80008CD01349847A642FAD870BD904E000861
:1001E800904E0008944E0008904E0008F0B50500A7
:1001F800830749D0541E002A45D003000326CAB2FB
:1002080002E00135013C3ED301332A703342F8D174
:10021800032C30D9FF220A401502AD182A04AD1864
:100228000F2C34D92700103F3F093E01B4461E0069
:100238001A0010366644156055609560D560103216
:100248009642F8D101373F01DB190F270C222740CE
:1002580022403C00002A0ED03E1FB608B400A44637
:100268001A001C1D644420C2A242FCD1032401369A
:10027800B6009B193C40002C05D0C9B21C19197056
:1002880001339C42FBD1F0BD03001400C0E72700F6
:10029800E2E7C0460B00034370B506009B070ED18A
:1002A800032A0CD9114D04E0043A043110C6032A7C
:1002B80005D90C680E4BE318A3432B42F4D0330046
:1002C800002406E00D5D013A355501330134002D57
:1002D80002D0002AF6D170BD00219C18002AFAD05D
:1002E80019700133A342FBD1F5E7C04680808080B6
:1002F800FFFEFEFE30B5002A26D003000B439B0705
:1003080024D1032A22D9164D0BE0043A002A1BD027
:10031800144C1C199C432C4216D104300431032A76
:1003280014D903680C68A342EFD004780D78A5426D
:1003380013D1012306E0C45CCD5CAC420DD101337E
:100348009A4201D0002CF6D1002030BD04780D78F7
:10035800AC4202D1012AECD1F6E7601BF5E7C046B2
:1003680080808080FFFEFEFEF0B505000F2A31D99F
:1003780003273E000D430C0003002E402F4234D1CA
:100388001500103D2D09AC462F013F1865685D60CA
:10039800A5689D60E568DD60256810341D601D0056
:1003A8001033BD42F2D165460F230C2401352D01CF
:1003B80049191340451914421AD0043B9B080133CC
:1003C8009B008C59AC5104369E42FAD10323AD19D7
:1003D80089191A40561E002A06D00023CC5C1A0040
:1003E800EC5401339642F9D1F0BD0500561EF4E7EE
:1003F8001A00EFE702B4714649084900095C490050
:100408008E4402BC7047C04603B471464908400098
:100418004900095E49008E4403BC70470022430826
:100428008B4274D303098B425FD3030A8B4244D3B4
:10043800030B8B4228D3030C8B420DD3FF220902F6
:1004480012BA030C8B4202D31212090265D0030BB5
:100458008B4219D300E0090AC30B8B4201D3CB03AB
:10046800C01A5241830B8B4201D38B03C01A5241ED
:10047800430B8B4201D34B03C01A5241030B8B42EF
:1004880001D30B03C01A5241C30A8B4201D3CB02DA
:10049800C01A5241830A8B4201D38B02C01A5241BF
:1004A800430A8B4201D34B02C01A5241030A8B42C2
:1004B80001D30B02C01A5241CDD2C3098B4201D3DA
:1004C800CB01C01A524183098B4201D38B01C01A58
:1004D800524143098B4201D34B01C01A52410309CF
:1004E8008B4201D30B01C01A5241C3088B4201D37E
:1004F800CB00C01A524183088B4201D38B00C01A2B
:10050800524143088B4201D34B00C01A5241411A51
:1005180000D20146524110467047FFE701B500205E
:1005280000F0F0F802BDC0460029F7D076E7704722
:1005380003460B437FD4002243088B4274D303093C
:100548008B425FD3030A8B4244D3030B8B4228D3DD
:10055800030C8B420DD3FF22090212BA030C8B4203
:1005680002D31212090265D0030B8B4219D300E0A3
:10057800090AC30B8B4201D3CB03C01A5241830B28
:100588008B4201D38B03C01A5241430B8B4201D3D8
:100598004B03C01A5241030B8B4201D30B03C01A01
:1005A8005241C30A8B4201D3CB02C01A5241830A7B
:1005B8008B4201D38B02C01A5241430A8B4201D3AA
:1005C8004B02C01A5241030A8B4201D30B02C01AD4
:1005D8005241CDD2C3098B4201D3CB01C01A52413B
:1005E80083098B4201D38B01C01A524143098B42C4
:1005F80001D34B01C01A524103098B4201D30B01AD
:10060800C01A5241C3088B4201D3CB00C01A5241D1
:1006180083088B4201D38B00C01A524143088B4296
:1006280001D34B00C01A5241411A00D2014652412F
:10063800104670475DE0CA0F00D04942031000D34E
:100648004042534000229C4603098B422DD3030AA3
:100658008B4212D3FC22890112BA030A8B420CD3B3
:10066800890192118B4208D3890192118B4204D3DC
:1006780089013AD0921100E08909C3098B4201D35C
:10068800CB01C01A524183098B4201D38B01C01A96
:10069800524143098B4201D34B01C01A524103090D
:1006A8008B4201D30B01C01A5241C3088B4201D3BC
:1006B800CB00C01A524183088B4201D38B00C01A69
:1006C8005241D9D243088B4201D34B00C01A524140
:1006D800411A00D20146634652415B10104601D3CD
:1006E8004042002B00D54942704763465B1000D357
:1006F800404201B5002000F005F802BD0029F8D0FD
:1007080016E770477047C046002B11D1002A0FD159
:10071800002900D1002802D00021C943080007B4ED
:10072800024802A14018029003BDC046D9FFFFFF4E
:1007380003B4684601B5029800F034F8019B9E4660
:1007480002B00CBC7047C046F0B5CE469946030CC3
:100758009C46130447461B0C1D000E00614604040A
:10076800240C80B50700100C4B436543414360439C
:100778002C0CC01824188C46A34203D980235B0292
:100788009846C444494679435643230C2D042D0CFE
:100798008919634424046019C918C0BCB946B04615
:1007A800F0BDC046F0B557464E464546DE46E0B574
:1007B80004000D009246994683B08B4230D82DD064
:1007C8004946504600F0BAF829000600200000F01B
:1007D800B5F8331A9846203B34D49B4653465A46BC
:1007E800934042461F00534693401E00AF423BD8F9
:1007F800AF4200D179E05B46A41BBD41002B00DA73
:1008080076E0002200230092019301235A46934088
:100818000193012342469340009329E08242CFD9B5
:1008280000220023009201930C9B002B01D01C6036
:100838005D600098019903B0F0BCBB46B246A9467A
:10084800A046F0BD42469B4620239B1A5246DA40FA
:10085800414613004A468A40170042461F43534602
:1008680093401E00AF42C3D9002200230092019397
:100878004346002BD8D0FB0772081A4346467B082C
:100888000EE0AB4201D1A2420CD8A41A9D4101202E
:1008980024196D410021013E24184D41002E06D037
:1008A800AB42EED9013E24196D41002EF8D10098D3
:1008B80001995B4600196941002B24DB2B005A463D
:1008C8004446D3402A00E2401C005B461500002B3A
:1008D8002ADB26009E40330026004746BE403200F1
:1008E800801A9941009001919EE7A342BCD882E703
:1008F8004246202300219B1A0022009101920122E6
:10090800DA40019285E7424620239B1A2A00464690
:100918009A402300F340444613432A00E2401C0057
:100928005B461500002BD4DA42462F002023260010
:1009380097409B1ADE403B003343CDE710B50029B2
:1009480003D100F007F8203002E0080000F002F8B8
:1009580010BDC0461C2101231B04984201D3000C82
:1009680010391B0A984201D3000A08391B0998421A
:1009780001D30009043902A2105C40187047C04630
:100988000403020201010101000000000000000050
:10099800044B1A78002A02D05878002801D1024B5B
:1009A8001878704798000020A3000020054B1A789B
:1009B800002A04D09A78002A01D0D8787047024BD0
:1009C8001878FBE798000020A400002030B5050047
:1009D80005480088A84206D903246C4303482154DB
:1009E80000194270837030BD02000020550F0020AE
:1009F800F8B505000E0017000024074B1B88A3421A
:100A080000D8F8BD20003B00320029000134FFF770
:100A1800DDFFA4B2F1E7C046020000200200012079
:100A280010B504008C400823144200D00633013965
:100A3800884001000820114200D006301B011843ED
:100A480010BD70B50C680E0007210500FFF7E6FF22
:100A5800052120702800FFF7E1FF032160702800BE
:100A6800FFF7DCFF0121A0702800FFF7D7FFE07037
:100A78000434346070BD0378202B02D0092B00D0D9
:100A880070470130F7E710B5FFF7F5FF00784342EC
:100A98005841C0B210BDF8B5040000680D00FFF75A
:100AA800EAFF020000200127030030267642B44600
:100AB80011788C446646092E04D9002801D02B6091
:100AC8002260F8BD0A204343303B3800CB1801327E
:100AD800EBE70000012210B542400821014803F06D
:100AE80097FD10BD00040050E12210B50021024816
:100AF8009200FFF77BFB10BD550F002010B50400D6
:100B0800FFF722FB322382B22100024802F05BFF8A
:100B180010BDC046DC12002070B5050008000E00AC
:100B2800FFF712FB3100020004002800FFF7E2FB88
:100B38000023984209D12A5D2033110099431F3BB5
:100B4800002902D0093A53425341180070BD0000F1
:100B58007FB504000822002102A8FFF747FB164EC4
:100B680001A93000019401F037FC051E08D10400EA
:100B7800300001F0E1FD002805D0300001F046FE0C
:100B8800002004B070BD0521300001F0BDFB002835
:100B980006D1300001F01CFC002D01D080B22418D1
:100BA80001353000EDB201F031FE112DE0D10834ED
:100BB800200980B2E5E7C046D4130020F0B5002430
:100BC80005000F00160087B0A24204D13023481C4C
:100BD8006B5407B0F0BD02AB01340333E3183000A7
:100BE8000A210193FFF7A0FC019B303119703000F6
:100BF8000A210196FFF712FC019B0600092B01D977
:100C08000A2CE8D12300ED1903AA013B995C29704D
:100C18000135002BF9D13819DBE7000030B5184B46
:100C280091B01A6800216846FFF7C8FF20246B4678
:100C38001C54144B411C1A686846FFF7BFFF6B46EB
:100C48001C54114B411C1A786846FFF7B7FF6B46D6
:100C5800451C1C54FFF79CFE290002006846FFF75C
:100C6800ADFF04000222094968440234FFF77CFB07
:100C780032236946A2B2064802F0A5FE11B030BD83
:100C88009400002090000020A30000208D4C000854
:100C9800DC12002010B50C1E03D10800FFF71AFF64
:100CA80010BD632901D90120F8E71421FFF73CFCA6
:100CB800642314224B436243934280414042EDE750
:100CC8009622F0B5274B87B0198852000B1C914229
:100CD80000D9131C0025244F9BB250220021380054
:100CE8000193FFF783FA214B214E0593019BAB42F9
:100CF8000FD1059C5022002120005034FFF776FACE
:100D0800E21B6423390092B21A4801F0B5FF07B01C
:100D1800F0BD194B30781C78FF2160437F30FFF716
:100D28007DFBC3B2B078FF2160437F300393FFF7A8
:100D380075FBC3B27078FF2160437F300293FFF7E1
:100D48006DFB05A9C0B2FFF77CFE039805A9FFF764
:100D580078FE0135029805A9FFF773FEADB2033698
:100D6800C4E7C04602000020A5000020F5000020CE
:100D7800550F002070130020000000200022084BAF
:100D880010B51870074B0C001A8003F07FFD064B56
:100D98001860002C03D0FFF7A7FEFFF791FF10BDE6
:100DA800A4000020740000207C000020214B026871
:100DB80070B59A4227D12048204903780A78002B39
:100DC80008D00D2A01D00A2A19D100231C4A037021
:100DD800137014E01B4C2378DDB2002B0FD1184B95
:100DE8000D2A01D00A2A0FD11A78002A07D0002527
:100DF8001A781548D2B28554012222701D7001223A
:100E0800124802F07BFF70BD1C783E2C06D81C7877
:100E1800601CC0B218700C4B1A55F0E71D70012306
:100E28000B4A03701378FF2BE9D013780133DBB238
:100E3800CEE7C046004400406F000020720000204A
:100E480070000020710000202E000020DC1200201D
:100E58006E000020084B026810B59A420BD100239F
:100E6800064A07491370074A07481370074A137060
:100E7800012202F043FF10BD004400407000002032
:100E88007200002071000020DC1200206F0000209A
:100E980010B572B650240120FFF71CFE200003F0A5
:100EA800FBFC0020FFF716FE200003F0F5FCF2E73C
:100EB80000B593B03422002105A8FFF797F9002167
:100EC800102201A8FFF792F98020800003F01AFC95
:100ED80002230593FE3340220893002305A80993B3
:100EE8000A920C9302F0C4FF011E01D0FFF7D0FF55
:100EF800072302900390049001A8019303F018FAC5
:100F08000028F3D113B000BDF0B50127022499B031
:100F1800DF4E03F09BFCFFF7CBFF0C2200210AA851
:100F2800FFF764F9736BA0203B437363736B08A9E5
:100F38003B400293029B736BC00523437363736B3F
:100F4800002523400393039B412308933E3B0993C9
:100F580003F0ACFA3A000821CE4803F059FB082206
:100F6800CC4808A9089209970A950B9503F09EFAB0
:100F7800A0200E2308A9C005089309940B940A958C
:100F88000C9703F093FA8023A020089308A97D3BCF
:100F9800C0050B9309940A950C9503F087FA0C2267
:100FA800290008A8FFF722F9BB4CBC4B200023609E
:100FB8008023DB05636004236361E319DD77230085
:100FC8002C331D7006236363A36323003C33A560A1
:100FD800E56025612583A576E7616562A5622563DD
:100FE8001D70E56401F080F8A84201D0FFF750FFBA
:100FF80009900A9008A92000089701F0EDF9051E4C
:10100800F4D1200001F020FC8022336C52011343FC
:101018003364336CA24C13400193019BA14B200015
:10102800236082235B00636080231B02A360E023AC
:10103800DB00E36080239B00A361F93BFF3BE36196
:10104800013B2561656125626562A562E3622563EE
:10105800656301F099FD0028C8D18022F36B9202E4
:101068001343F363F36B904D13400093009B8F4B36
:10107800A8602B60E1235B026B600C23E8602861A9
:10108800A861E86128626862A86228006B6102F0C2
:101098006FFD011EAAD1280002F0A8FE011EA5D1ED
:1010A800280002F0C3FE0028A0D1280002F080FE2C
:1010B800061E9BD1020001001C2003F04FFB1C20E0
:1010C80003F076FB3000FFF705FD794B31001E0079
:1010D80050221800FFF78AF850223100142320000C
:1010E80001F0CAFDFFF700FDFFF7EAFD3A0028000E
:1010F800704902F003FE002800D077E703F0C6FB32
:101108006D4D04002B78002B00D118E172B63F22F8
:101118006A4908A8FFF7BEF85F2200236A441370E3
:101128002B7062B608AA1378002B28D108A8FFF7FD
:10113800A2FC037805000490002B00D1FFE003F027
:10114800A5FB5F4B5F4918602800FFF7E5FC002806
:1011580000D1E8E3E81CFFF78EFC03780500002BBC
:1011680009D05949FFF7D8FC002810D0281DFFF7EF
:101178008AFC00280BD05548FFF7C0FCDFE01900B7
:101188006139192901D8203B13700132CBE7504F40
:1011980028003900FFF7C0FC00280CD0A81CFFF776
:1011A80072FC002807D001234A4D2B6003F06EFB28
:1011B80068604948E0E7494E28003100FFF7ACFC79
:1011C80000280AD0E81CFFF75EFC002805D00022A2
:1011D800404B43481A605A60CEE728004149FFF760
:1011E8009BFC002800D19BE0A81DFFF74CFC0028C1
:1011F80000D195E03C48FFF781FC364D30002B7854
:10120800002B00D03800FFF779FC3848FFF776FC50
:10121800374B38481B78032B02D8374A9B0098581D
:10122800FFF76CFC3548FFF769FCFFF7B1FB0300DB
:101238003048032B02D8304A9B009858FFF75EFCD1
:101248002F48FFF75BFC2F4B2A481B78062B02D848
:101258002D4A9B009858FFF751FC2C48FFF74EFC8D
:10126800FFF7A4FB03002348062B02D8264A9B005D
:101278009858FFF743FC2648FFF740FCAB78254811
:10128800002B00D02448FFF739FC244874E7C046F7
:101298000010024000040050D41300200024014034
:1012A8007013002000300140DC1200200044004090
:1012B800A500002072000020710000202E000020F0
:1012C800780000204A4900084E49000853490008A0
:1012D8003449000898000020BE4900083749000832
:1012E800CA490008D7490008DE490008E349000850
:1012F800A30000203B490008EC4D0008F049000815
:10130800024A0008A4000020D04D00080E4A000838
:101318001F4A000847490008434900088D4C000847
:101328002800D249FFF7F8FB002800D1C7E0E81CE5
:10133800FFF7A9FB002800D1C1E0FFF76FFCCC4AFA
:101348001368E31A132B6CD901201460FFF700FC13
:10135800C84EC94F7043C949C019FFF75FF8C84B59
:10136800C8495843FFF75AF80023C74A0021FFF736
:10137800EBF90023C54AC64D80185941C54A0023D8
:10138800FFF7C2F92860C448FFF7E2FB7043BB4986
:10139800C019FFF743F8FA23C8219B0058434900B6
:1013A800FFF73CF8BD4EBE4B326818602B68002A28
:1013B80007D09A4201D900F02AFC03339B1A9B08F4
:1013C8009B18B84D33602A68002A07D0824201D999
:1013D80000F023FC801A033080088018FA22286065
:1013E8001201904201D900F01EFCC8210227C90150
:1013F8003A008B4207D8AC4AAC4D991800228D426E
:1014080052410137D2B2AA4DAA492E78002E01D0F6
:1014180000F019FCA84B1E70002A01D000F007FC50
:101428000A70A64B1A78002A0AD05A68A449A21A48
:101438008A4205D90022A3481A605A60FFF75EFB6A
:10144800FFF7A6FA0500FFF7B1FA032D01D000F067
:101458003BFC78212000FFF767F800203B238B42F4
:101468004041C0B2FFF736FBFFF792FA0500FFF7DD
:101478009DFAAB1EDBB2012B01D900F091FC64216F
:101488002000FEF7CBFF01238F4D90492A780340B7
:101498009A4206D1FA260A687600A21AB24200D207
:1014A8002CE62B700C60C00701D400F09AFC0022D7
:1014B80012201100FFF79CFAFFF702FC1EE67F4E90
:1014C80083483378002B00D156E628008149FFF77E
:1014D80023FB002800D18DE0681DFFF7CCFA7E4978
:1014E8000500FFF719FB002804D0281DFFF7CBFAE9
:1014F80000280AD128007949FFF70EFB002808D0F8
:10150800681DFFF7C0FA002803D0002374487370E1
:1015180032E628007349FFF7FFFA002804D0E81CD8
:10152800FFF7B1FA002815D128006F49FFF7F4FA40
:10153800002804D0681DFFF7A6FA00280AD1280061
:101548006A49FFF7E9FA002808D0A81DFFF79BFAB7
:10155800002803D00123664873700DE6280065490A
:10156800FFF7DAFA002804D0681DFFF78CFA002884
:1015780015D128006049FFF7CFFA002804D0A81D2C
:10158800FFF781FA00280AD128005C49FFF7C4FA5E
:10159800002808D0681DFFF776FA002803D0022338
:1015A80057487370E8E528005649FFF7B5FA002850
:1015B80004D0681DFFF767FA002815D128005249A2
:1015C800FFF7AAFA002804D0A81DFFF75CFA002844
:1015D8000AD128004D49FFF79FFA002808D0E81DD6
:1015E800FFF751FA002803D0032349487370C3E575
:1015F8004848C1E528004849FFF78EFA00280DD170
:1016080028004649FFF788FA00282AD128004449CB
:10161800FFF782FA002826D14248ADE5281DFFF7DA
:101628002AFA2D490500FFF777FA002804D0281D6B
:10163800FFF729FA00280AD128003B49FFF76CFA7E
:10164800002877D0281DFFF71EFA002872D0002343
:10165800364AB370138003F019F91C4B18603448EC
:101668008AE5681DDBE7E81CD9E7C0462C4A000874
:1016780080000020E40C0000FF070000FF0F0000BE
:10168800D0FB010010270000666200004231000014
:101698009400002084620000400000188C000020A4
:1016A800900000208800002090E8FFFFE735000048
:1016B800A30000208500002084000020980000205E
:1016C800E09304004A4D00082D0000207C00002013
:1016D800304A00083E4A0008444A0008494A0008BF
:1016E8004F4A0008634A0008674A00086D4A000824
:1016F800744A0008904A0008964A00089D4A000863
:10170800A34A0008BE4A0008C44A0008C74D00089A
:10171800CB4A0008E64A00080B4B0008104B0008AB
:10172800164B0008334C00081A4B000874000020C0
:101738001F4B00082800C449FFF7EEF9002804D021
:10174800281DFFF7A0F900280AD12800BF49FFF794
:10175800E3F900280FD0281DFFF795F900280AD0D3
:10176800012300227380BA4B1A8003F08FF8B94B1B
:101778001860B94800E52800B849FFF7CDF90028F6
:1017880004D0281DFFF77FF900280AD12800B449A2
:10179800FFF7C2F9002814D0681DFFF774F9002874
:1017A8000FD002230022FF337380A94B1A8003F065
:1017B8006DF8A84B1860FFF797F9FFF781FAA94869
:1017C800DAE42800A849FFF7A7F900281AD0681D0D
:1017D800FFF759F9002815D00025A44B73809C4BBE
:1017E8001D8003F053F89B4B290018602020A04B64
:1017F8000200187098705D70FFF7FAF8FFF760FA4A
:101808009C48B9E428009C49FFF786F9002804D0D1
:10181800681DFFF738F900280AD128009749FFF713
:101828007BF900280FD0681CFFF72DF900280AD093
:101838000022934B7380864B1A8003F027F8854B60
:101848001860904898E428008F49FFF765F9002848
:1018580004D0681DFFF717F900280AD128008B4922
:10186800FFF75AF900280FD0681CFFF70CF9002879
:101878000AD00022864B7380754B1A8003F006F855
:10188800744B1860834877E428008349FFF744F9CC
:10189800002804D0681DFFF7F6F800280AD12800B0
:1018A8007E49FFF739F900280FD0681CFFF7EBF8DD
:1018B80000280AD000227A4B7380654B1A8002F008
:1018C800E5FF644B1860774856E428007649FFF72F
:1018D80023F9002804D0681DFFF7D5F8002815D192
:1018E80028007249FFF718F9002804D0681CFFF790
:1018F800CAF800280AD128006D49FFF70DF9002819
:101908000FD0A81DFFF7BFF800280AD00022694BA6
:1019180073804F4B1A8002F0B9FF4E4B186066482F
:101928002AE4664828E428006549FFF7F5F8002806
:101938000AD0A81CFFF7A7F8002805D00121080045
:10194800FFF71CFA5F4817E428005F49FFF7E4F83F
:10195800002806D0281DFFF796F8002801D05B481C
:101968000AE428005A49FFF7D7F8002805D0281DAF
:10197800FFF789F8002800D0DFE4564B56481B785B
:10198800002B01D1FFF7F8FB28005449FFF7C4F8F2
:1019980000280BD0E81CFFF776F8002806D00121B4
:1019A8000800FFF7EBF94E48FFF7E6FB28004D4922
:1019B800FFF7B2F8002827D0681DFFF75CF805A9E3
:1019C800049004A8FFF767F800281AD00498FFF7D6
:1019D8005AF8002815D09622059B5200591E9142AC
:1019E8000FD2414A9BB21380194A1188994201D3F8
:1019F80000231380FFF778F8FFF762F93B48FFF7F9
:101A0800BBFB3B48FFF7B8FB28003A49FFF784F8CF
:101A1800002877D0E81CFFF72EF805A9049004A841
:101A2800FFF739F800280CD00498FFF72CF80028A5
:101A380007D0059BFF2B04D82F4A30481370FFF7B7
:101A48009BFB2F48FFF798FB324B00085E4D0008C0
:101A5800740000207C000020374B00084F4B000822
:101A6800544B00085A4B00086A4D00080102000058
:101A7800A00000206D4B0008814B0008854B000832
:101A880001030000874B00089B4B00089F4B000890
:101A980001040000A14B0008B54B0008B94B000831
:101AA80001050000BB4B0008CF4B0008D34B0008D2
:101AB800D54B000801060000DC4B0008F74B000876
:101AC800414C00085E4C0008444C0008494C000892
:101AD800504C0008A4000020554C00083749000865
:101AE800634C00086C4C000802000020724C00088F
:101AF8007D4C0008904C000800000020944C000821
:101B08009D4C00082800BF49FFF706F8002838D088
:101B1800681DFEF7B0FF05A9049004A8FEF7BBFFF7
:101B280000282BD006A904A8FEF7B5FF002825D069
:101B380007A904A8FEF7AFFF00281FD00498FEF7F6
:101B4800A2FF00281AD00599FF2917D8069AFF2A5C
:101B580014D8079BFF2B11D8AB4D02202970002108
:101B6800AB706A70FFF70AF92878AA786978FEF7E7
:101B78003FFFFFF7A5F8A548FFF7FEFAA448FFF7CF
:101B8800FBFA2800A349FEF7C7FF00283CD0281D10
:101B9800FEF771FF05A9049004A8FEF77CFF002852
:101BA8002FD00498FEF76FFF00282AD00598042844
:101BB80027D8FEF71FFC030A11181F00012108008F
:101BC800FFF7DCF89448FFF7D7FA03200021FFF766
:101BD800D5F89248FFF7D0FA04200021FFF7CEF895
:101BE8008F48FFF7C9FA05200021FFF7C7F88D488D
:101BF800FFF7C2FA06200021FFF7C0F88A48FFF76E
:101C0800BBFA8A48FFF7B8FA8948FFF7B5FAD11C3A
:101C1800CB1A9B08D31AFFF7D4FBD11C091A8908E1
:101C2800501AFFF7DBFB02270322FFF7ECFB0B78C8
:101C38000133DBB20B70BB4201D2FFF7F2FB2A7013
:101C48000E70FFF7EEFB032E2AD0032A0ED10B7875
:101C58000133DBB20B70012B01D8FFF7E2FB002345
:101C68002A70744A0B701370FFF7DBFB012E22D128
:101C7800022AECD000220A706F4A9B186F4A9A42D7
:101C880092415242002A11D06A4A13780133DBB2DA
:101C98001370042B01D8FFF7C4FB00232B70E2E775
:101CA80000230B70E1231B019842EDD30022614B06
:101CB8001A70FFF7B6FB00220A70022EF6D16049AF
:101CC80099425241D2B2DDE7022D17D19621200068
:101CD800C900FEF729FC0120632901D8FFF7C2FBE0
:101CE8000B00DC3B632B01D8FFF7BCFB0020632310
:101CF800B939FF398B424041FFF7B4FB012D18D1A8
:101D0800C82120000901FEF70FFCC823DB00994217
:101D180002D3C8231B01591A4B204843C821C900C4
:101D2800FEF77CFB0530C1B22000FEF7B3FFFFF7DA
:101D38009BFB444B1B68E31A772B02D80120FFF763
:101D480091FB002810D1E1212000C900FEF7ECFB2F
:101D5800E1239B00994202D3E123DB00591A5A2060
:101D68004843E1218900DBE7C31EDBB2032B12D80D
:101D7800C82120008900FEF7D7FBC8235B009942E1
:101D880001D3DB18591A5A204843C8214900FEF7E5
:101D980045FB0A30C7E72D210228C5D00F21C3E72C
:101DA800012D22D1FA212000C900FEF7BDFBFA233C
:101DB8005B0099429B41244D5B422A7823489A4212
:101DC80007D1FA260268B600A21AB24201D2FFF77A
:101DD80095F92B70FA2304605B00994201D2FFF752
:101DE80066FBFEF781FEFFF767FB062801D9FFF7C0
:101DF80085F9FEF709FB2D0083F983F96500980042
:101E0800CE00E2006A4D0008A0000020AE4C000899
:101E1800B94C0008CB4C0008D04C0008DE4C000838
:101E2800F24C0008044D0008194D00082C4D00081C
:101E38003C4D00088400002090E8FFFFDC370000DC
:101E4800D3620000780000202C0000207C000020D5
:101E5800754A1368E31A3B2B01D8FFF74FF9146052
:101E6800FEF742FE714B724F1D883E88002D23D02D
:101E780029003000FEF758FB00238CB21A00182105
:101E88002000FEF7A3FD012D16D064192900601E5D
:101E9800FEF74AFB002388B21A000821FEF796FDD8
:101EA800022D09D02900A01EFEF73EFB002388B2B0
:101EB8001A000321FEF78AFD01363E80FFF7FCFA7F
:101EC800594A1368E31A272B01D8FFF717F914604A
:101ED800FEF70AFE554B564D1E882C88310020000F
:101EE800FEF722FB002388B21A00FF21FEF76EFDE1
:101EF800022E14D9A7193100781EFEF715FB00230E
:101F080088B21A003021FEF761FD3100B81EFEF7D5
:101F18000BFB002388B21A000C21FEF757FD013491
:101F28002C80FFF7C9FA404A1368E31A1D2B01D821
:101F3800FFF7E4F81460032500243C4B3C4A198859
:101F480016888C4203D301361680FFF7B5FA2002B3
:101F5800FEF764FA8119C9B254290AD86943CAB28A
:101F6800D1430023C9B220000134FEF72FFDA4B2EB
:101F7800E3E7A92906D855396943CBB2DA430021EA
:101F8800D2B2F0E756316943C9B2CB430022DBB283
:101F9800E9E7254A1368E31A132B01D8FFF7AEF8CF
:101FA800234D14602C88E0B2E30501D5C043C0B2CC
:101FB80000221100FEF71CFDB1E71B4A1368E31A63
:101FC800312B01D8FFF79AF81460FEF78DFD174BF7
:101FD8001D88002D01D1FFF76FFA154F29003E88A3
:101FE8003000FEF7A1FA00228CB2FF231100200076
:101FF800FEF7ECFC012D00D15EE764192900601E94
:10200800FEF792FA002288B240231100FEF7DEFCA8
:10201800022D00D150E72900A01EFEF785FA002204
:1020280088B21023110045E77C0000200200002040
:1020380074000020FEE7FEE77047704710B502F015
:1020480019FC10BD10B5024800F016FF10BDC046BF
:10205800DC12002001210A4B82B01A6C0A431A6470
:102068001A6C0A4080210092009ADA6B49050A43EB
:10207800DA63DB6B0B400193019B02B07047C046EB
:102088000010024010B5040088B01422002103A8F3
:10209800FEF7ACF8104B22689A421AD180210F4BF8
:1020A80049031A6CA0200A431A641A6CC0050A4036
:1020B80001210192019A5A6B0A435A635B6B0B40E8
:1020C8000293029B412303A903933E3B049302F02E
:1020D800EDF908B010BDC0460024014000100240D0
:1020E80080684007C00F70470023F0B585B0040032
:1020F8000393984200D1F0E0856D9D4205D1FFF72A
:10210800C1FF23005433E5651D70802325685B05F6
:10211800AA681A4200D1A7E00022AB680192DB004E
:1021280008D410230126A26D01961343A365E36D1D
:102138003343E3652800FFF7D3FF1022A36D134054
:10214800034300D0CCE0A26D674B20691A400633E8
:10215800FF331343A365AB68DB0761D4276BE168E2
:102168007B1E9F41A368A27E0B43217E3F03890308
:102178000B43617EC9030B4351030B439C46002864
:1021880000DB86E041004908230066462C331B78B3
:102198005B0033433B430B43611CC97F012905D1D5
:1021A800002A00D078E0802252021343626A002A93
:1021B80005D0E02149000A40A16A0A431343EA68AE
:1021C8004A490A401343EB60230062683C33E16CE0
:1021D8001B78970FBF079C463943012B08D1236C06
:1021E800666C33430B43A16C0B4361463B43194375
:1021F8002B693F4F3B400B4380212B6153005B0809
:10220800C9058B420CD080231B069A4208D0394955
:10221800394F0B683B40F027BF033A4013430B602C
:10222800072170276B69626B8B4313436B61696984
:10223800A36BB9431B010B436B61002834D11023F6
:10224800A96A5B420B43AB6207216B690B409A4258
:1022580039D10023E365A26D03339A43023B13434C
:10226800A365019805B0F0BDAA6824490A40134344
:10227800AB60234B23491868FEF7D0F801304000C3
:102288000390039B002B00D146E7039B013B03937C
:10229800F7E78021890377E72022A76D3A43A265F3
:1022A800E26D1143E16581E780239B039842CBD11E
:1022B8001C21AB6AE369013B9B000B402C39994018
:1022C8000B00216EBEE71223A26D9A43023B134313
:1022D800A3650123E26D1343E36501230193C0E77E
:1022E800A36D1A43A265F8E7FDFEFFFF0102DEFFBA
:1022F80002FCFF1F08270140FFFFC3FFE8FFFF6F35
:102308000C000020400D0300F7B5466904000F00DB
:10231800082E0AD003680120DB680426034204D093
:102328002023A26D1343A365FEBD02F0AFFA01900E
:1023380025682B681E4224D08023A26D9B0013437E
:10234800A365C023EA681B011A4215D1A37E002B9E
:1023580012D12B681B070FD52800FFF7C1FE0028F4
:1023680027D10C226B6893436B60A26D174B1A4000
:102378000433FF331343A365237E002B22D00020B0
:10238800D2E77B1CD5D002F081FA019BC01AB84273
:1023980001D8002FCCD1320023681B681A401E4296
:1023A800C6D10423A16D54340B436360032022700B
:1023B800BAE72023A26D1343A3650123E26D1343FB
:1023C800E365D9E70C232B60D9E7C046FEFEFFFF83
:1023D8000368186C704700000023F0B585B00393BC
:1023E8000300009154331A7804000220012A4DD0CA
:1023F800012227691A7025682800FFF771FE002856
:1024080000D0F7E0009B04225B6880219C4697433C
:102418006246009B09061B68022A00D1BEE05A03E7
:10242800520B8F4234D1A96A0A43AA62009A68699A
:1024380092681902724E0A403240884302436A6128
:10244800002B1FDAE0216F4A6F48156849042940BC
:10245800834200D08CE080200004054212D113682A
:102468006A4D2B400B431843694B10601868694943
:10247800FDF7D4FF431C0C2058430390039B002B0B
:1024880000D071E0002000235434237005B0F0BD63
:102498001F2167460F401039B940CE430196266E7A
:1024A8008E433100002A12D1980E1F321040B840D6
:1024B800624608439208E169013220668A42B5D82B
:1024C800A96A01989A00120FBA400140ACE70122AC
:1024D8001342ECD19218134224D10426334223D15B
:1024E8001A0723D4DA0623D49A0623D45A0623D407
:1024F8001A0623D4DA0523D49A0523D45A0523D4FB
:102508001A0523D4DA0423D49A0423D45A0423D4EE
:102518001A0423D4DA0323D49A0323D45A03C6D53E
:102528001220C4E70120C2E71000C0E70320BEE77D
:102538000420BCE70520BAE70620B8E70720B6E77D
:102548000820B4E70920B2E70A20B0E70B20AEE77D
:102558000C20ACE70D20AAE70E20A8E70F20A6E77D
:102568001020A4E71120A2E7039B013B039385E712
:10257800294883420BD180204004054200D081E7DE
:102588001368224D2B400B43184310607AE7234809
:10259800834200D076E78020C003EEE78F4204D163
:1025A800AA6A5903490B8A43AA62002B00DB69E730
:1025B800144A15481168834208D1A02310685B04A7
:1025C8000B40124901400B4313605BE712488342FA
:1025D80003D1C02310681B04F2E71048834200D0DF
:1025E80050E7C020400413680140084803401943DD
:1025F800116047E72023A26D01201343A36542E73A
:1026080000FFFF0708270140001000B0FFFF3FFE52
:102618000C000020400D0300004000B8002000B46A
:1026280070B5056804002800FFF75AFD002801D19D
:10263800002070BDAB689B0705D4AA680F4B1A40F1
:1026480010231343AB6002F021F904260500236828
:102658009B683342ECD002F019F9401B0228F6D9E6
:1026680023689B683342F2D010230120A26D1343E4
:10267800A365E36D0343E365DBE7C046E8FFFF7F3F
:102688000023F7B5026801939168013304001942E9
:1026980001D00020FEBD90682249084208D01022CF
:1026A800A16D0A43A265E26D13430120E365F1E7DA
:1026B80091681D4F39400B4393601C4B1B681B02EC
:1026C80021D4637E012BE4D002F0E0F80125060056
:1026D800226813682B42DCD193682B4203D193689C
:1026E8003B402B43936002F0D1F8801B0228EFD9BE
:1026F80023681B682B42EBD11023A26D1343A365FB
:10270800E36D2B43D1E70A4B0A491868FDF786FEAB
:1027180001300190019B002BD3D0019B013B019319
:10272800F8E7C04617000080E8FFFF7F0827014050
:102738000C000020400D030070B504000068FFF78E
:10274800CFFC06000220002E1DD1250054352B7821
:10275800012B18D0012320002B70FFF791FF0028D0
:1027680012D1A26D094B1A4080235B0013431C222F
:10277800A3652368E0651A6028709968044A1140C7
:1027880004220A439A6070BD2E70FCE7FEF0FFFF3A
:10279800E8FFFF7F0122036870B504009868996814
:1027A800114201D1002070BD02210842FAD1052052
:1027B8009D680540012D1ED19A68134802401143B7
:1027C800032299601A6002F061F8060023689B688A
:1027D8002B42E7D002F05AF8801B0228F6D923686A
:1027E8009B682B42F2D01023A26D1343A365E36DBF
:1027F8002B43E36506E01023A16D0B43A365E36D4E
:102808001A43E2650120CEE7E8FFFF7F70B50600B6
:102818005436337804000220012B12D00125200001
:102828003570FFF7FDFE002809D12000FFF7B2FF41
:10283800002804D1A36D034A13401D43A565002356
:10284800337070BDFEFEFFFFF0B5002305000222C5
:1028580085B0029354352B7804000092012B3ED0AA
:1028680001262E70FFF796FF2368009099680A00EA
:102878003240314206D01023A26D1343A3650023D2
:102888002B702CE08026A06D43493606084006319F
:10289800FF310143A165D8684049B446084001901A
:1028A800D9683F4801400820D9603E4967469E687C
:1028B8000E403E439E609E68002E13DA029E01364B
:1028C8000296029F384EB742F5D91223A26D9A4359
:1028D800023B1343A36500232B7001330093009838
:1028E80005B0F0BD1E007F27B436366801383E407B
:1028F800013692190028D9D1012698680432084077
:102908003043986080201F69D208C00587421CD3D5
:102918001E007F27B4363068B843104330609A6889
:102928000126114002220A439A6001F0AFFF070016
:1029380023689A6832421ED1DA6801990A43DA603C
:102948000322A36D9343334398E718480768F020A0
:1029580080033840E0277F03B842D9D3800C03387E
:102968008640039603984008039003980028CFD028
:1029780003980138F8E701F089FFC01B0228D7D96E
:1029880023689B683342D3D01023A26D1343A365F9
:10299800E36D3343E3659EE7FDFEFFFF0380000020
:1029A800FC7FFFFFE8FFFF7FFFF1020008270140DF
:1029B800F0B50E0085B01500040001F067FFAD19F1
:1029C8002D1A01F063FF8027254B01901B685B01DE
:1029D8001B0D6B43039322689368180038403B42F1
:1029E80032D0731CF8D001F051FF019BC01AA842E5
:1029F8002CD3E02123685A688A435A60822261688E
:102A0800520091420CD18021A26809028A4203D067
:102A18008021C9008A4203D140211A688A431A607A
:102A28008021A26A89018A4206D119680D480140AD
:102A3800196019680A431A60230001225D331A706D
:102A4800002303205C34237005B0F0BD039B002BEA
:102A580003D0039B013B0393BDE71D00BBE7C046C2
:102A68000C000020FFDFFFFFF0B51700002285B043
:102A78001D0002ABDA7004000E0001F007FFED192B
:102A88002D1A01F003FF23222368009001932A4B9B
:102A98001B6853431B0D6B43039302AB2168DA1C7D
:102AA8008B681800304033423BD0C023DB009E4285
:102AB80004D1019B1B7BDBB2137013787B1CEFD016
:102AC80001F0E4FE009BC01AA8422CD3E021236841
:102AD8005A688A435A6082226168520091420CD136
:102AE8008021A26809028A4203D08021C9008A4253
:102AF80003D140211A688A431A608021A26A890199
:102B08008A4206D119680D480140196019680A43BC
:102B18001A60230001225D331A70002303205C34FD
:102B2800237005B0F0BD039B002B02D0039B013B33
:102B3800B2E71D00B1E7C0460C000020FFDFFFFF31
:102B480070B513000D0016000A00C02149010400E9
:102B5800FFF78AFF002805D020230320226E1343A5
:102B6800236670BD320029002000FFF721FF0028EE
:102B7800F2D1C02133002A002000C900FFF774FFFA
:102B88000028EED0E8E77047F8B504000120002CD3
:102B980067D0636A002B65D1822261685200914236
:102BA80000D0E36100232500A3625D352B78DAB2FB
:102BB800002B05D123005C3320001A70FFF7E3FFD8
:102BC800022340222B702168E6680B689343E022B9
:102BD8000B60D2000023964248D9F0221800120157
:102BE800964200D0A3628222842763685200134071
:102BF800A2683F023A40022713432269A5693A4076
:102C080013430122676917403B438027BF002F40C9
:102C18003B43E769373217403B43276A483217403E
:102C280080223B43A76A920117403B4310270822A2
:102C38000B60636A2D0C3B40676B17403B43F027E2
:102C48003F013E403343042635402B4303434B604A
:102C5800CB69084803400020CB61012320665D341E
:102C68002370F8BD0023236163619BE78020400146
:102C7800B6E7C046FFF7FFFFF0B5040085B01E00B9
:102C88000D00170001F002FE23005D330090019350
:102C98001B78D8B2012B00D0B1E0002D00D17FE025
:102CA800002F00D17CE023005C331A78012A00D180
:102CB800A5E018700323019A13700023A21D236650
:102CC8002364A563A787E78702329387D387802287
:102CD800A1682365E36412022368914208D1402168
:102CE8001A688A431A6080221968D2010A431A6056
:102CF80040221968114202D119680A431A60E0217A
:102D0800E0686268C90088424CD9002A01D0012FC6
:102D180007D12A880235DA60E38FA563013B9BB2AD
:102D2800E38702250CE0226893682B4228D0A36B26
:102D380019880233D160A363E38F013B9BB2E38719
:102D4800E38F002BEFD131002000009AFFF7F8FE47
:102D5800002851D1A368002B06D103932368DA68B1
:102D680003929B680393039B0123019A137023002A
:102D780000225C331A70206E431E9841C0B20FE0E7
:102D880001F084FD009BC01AB042D9D3731CD7D080
:102D9800230001225D331A70002303205C34237062
:102DA80005B0F0BD002A01D0012F08D12A781A7386
:102DB800A36B0133A363E38F013B9BB2E387022537
:102DC8000DE023689A682A420DD0A26B12781A7314
:102DD800A36B0133A363E38F013B9BB2E387E38FCC
:102DE800002BEED1AFE701F051FD009BC01AB042B5
:102DF800F5D3731CF3D0CBE720232366AAE7022080
:102E0800CEE7000030B5EFF31084012282F310887A
:102E18000168134D0B682B400B6084F31088EFF3A7
:102E2800108182F3108802680E4C936823409360E7
:102E380081F31088C36E012B0AD1EFF3108183F35D
:102E48001088102402681368A343136081F3108864
:102E5800030020228C331A600023C366436730BD09
:102E6800DFFEFFFFFEFFFFEF7047704710B5806A77
:102E7800FDF7F0FF10BD7047F7B50168C34DCB698A
:102E880004000A6888682B4210D120252B4200D103
:102E98009BE08026760515400640354300D194E036
:102EA800636F2000002B00D085E085E0B84D054019
:102EB8000095B84D009E1540354300D185E02500AA
:102EC80001269035334205D0D70503D50E622F6809
:102ED8003E432E60022633420CD0C7070AD527008E
:102EE8000E6290373E680197B446042667463E4313
:102EF800019F3E60042633420CD0C7070AD527003D
:102F08000E6290373E680197B446022667463E43F4
:102F1800019F3E600826B446334209D02027009E10
:102F28001740374304D066460E622F683E432E6032
:102F380080263601334206D0570104D50E6220217F
:102F48002E68314329602968002935D020210B4299
:102F58000AD080235B0511400340194304D0636FF6
:102F6800002B01D02000984722682B6840279668DC
:102F780028223E40134020001E4322D0FFF742FF84
:102F880023689B683B4218D0EFF31081012383F339
:102F98001088250004CD9368BB43936081F31088A3
:102FA800E86F002809D07C4B836301F071FB00288F
:102FB80002D0E86F836B9847F7BD2000FDF74AFF02
:102FC800FAE7FDF747FF2E60F6E7E56E012D00D022
:102FD800A4E01026334200D1A0E0324200D19DE0A7
:102FE80023000E6289685C3308001A884023184061
:102FF80019425ED0201DC16F0F68796889B2002917
:103008004DD091424BD222005E32118020218C4655
:103018003A681140009161460A4232D1EFF31087B5
:1030280085F3108821685D4E0A6832400A6087F38C
:103038001088EFF3108785F3108821688A68AA43FF
:103048008A6087F31088EFF3108785F3108821686A
:103058008A689A438A6087F31088230062468C3313
:103068001A60009BE366EFF3108185F310882268ED
:103078000F351368AB43136081F31088C06F01F0FC
:10308800CDFA02232200236723005C325E331B88BB
:103098001188C91A89B22000FFF7EDFE8CE791422A
:1030A80000D089E73B689B0600D485E702232367A5
:1030B800F1E721005E310B8809889BB2002900D115
:1030C8007AE7D21A91B2002900D175E7EFF3108799
:1030D80085F310882268324E13683340136087F3F3
:1030E8001088EFF3108785F3108822682D4E9368B7
:1030F8003340936087F31088230020228C331A60B2
:10310800E0666067EFF3108085F310881025226869
:103118001368AB43136080F31088C7E780256D03FD
:103128002B4206D0460204D520000D6200F03CFE7A
:1031380042E780210B4207D080252D04114028400A
:10314800014301D0A36FACE640210B4216D00A42DE
:1031580014D0EFF31080012383F3108822681368DA
:103168008B43136080F310882300202288331A6071
:1031780000232000A367FFF778FE1DE7190213D587
:10318800510011D5200000F011FE15E70F080000CE
:103198000100001020010004752E0008FFFEFFFF4B
:1031A800DFFEFFFFFEFFFFEFDB0100D404E7002A8C
:1031B80000DB01E7200000F0F8FDFDE60100F8B5AE
:1031C80003008C310C6860331A880368222C57D1AD
:1031D8005B6A846D134002002370836D5E32013395
:1031E80083651388013B9BB2138013889CB2002B24
:1031F80042D1EFF31086013383F310880568234F1B
:103208002A683A402A6086F31088EFF3108683F321
:1032180010880568AA689A43AA6086F31088202255
:103228000A60026804675268446712020AD5EFF31D
:10323800108183F310880268154C136823401360CB
:1032480081F31088C36E012B17D10022C266EFF3F9
:10325800108483F3108801680F330A689A430A6060
:1032680084F310880268D169194200D01362030000
:103278005C331988FFF7FFFDF8BDFDF797FDFBE705
:10328800082299690A439A61F6E7C046DFFEFFFF04
:10329800FFFFFFFB0200F8B503008C3211686033B2
:1032A8001C880368222956D1596A836D21401980E8
:1032B8000100023383655E310B88013B9BB20B80B2
:1032C8000B889CB2002B42D1EFF31086013383F3B5
:1032D80010880568224F29683940296086F31088CC
:1032E800EFF3108683F310880568A9689943A960ED
:1032F80086F31088202111600268046752684467C9
:1033080012020AD5EFF3108183F310880268154C76
:1033180013682340136081F31088C36E012B17D103
:103328000022C266EFF3108483F3108801680F331C
:103338000A689A430A6084F310880268D1691942BE
:1033480000D0136203005C331988FFF794FDF8BDC1
:10335800FDF72CFDFBE7082299690A439A61F6E715
:10336800DFFEFFFFFFFFFFFB0300F0B50600603341
:103378001B8885B0029303688C36DD691A680400DF
:1033880003929A6801923268222A00D0C2E00300B0
:1033980068331B88002B00D192E020231D4200D106
:1033A8008EE0236802995B6AA26D0B4013702200BD
:1033B800A36D5E320133A3651388013B9BB2138072
:1033C80007232268D5691D422FD0063B1D4208D02D
:1033D8000399C90505D52100136290310868034394
:1033E8000B6002231D4209D00199C90706D52100A7
:1033F800136290310868DB1803430B6004231D42F5
:1034080009D00199C90706D51362220090321168C4
:10341800023B0B431360270090373B68002B04D016
:103428002000FDF717FD00233B6023005E331B8857
:1034380099B2002BB1D1EFF31085013383F31088D3
:103448002068374F02683A40026085F31088EFF32E
:10345800108583F310882068324F82683A40826072
:1034680085F31088202232602268216752686167DC
:1034780012020AD5EFF3108183F3108822682A48D4
:1034880013680340136081F31088E36E012B3DD16C
:103498000022E266EFF3108083F3108821680F336F
:1034A8000A689A430A6080F310882268D169194231
:1034B80000D0136223005C3320001988FFF7DBFC7F
:1034C80023005E331B889AB2002B1DD0230068337B
:1034D8001B88934218D9EFF31080012282F31088D9
:1034E8002168124D8B682B408B6080F31088104B3D
:1034F8006367EFF3108182F3108820232268106835
:103508000343136081F3108805B0F0BD2000FDF778
:103518004DFCD5E7082299690A439A61F4E7C04649
:10352800FFFEFFFFFEFFFFEFFFFFFFFBFFFFFFEFC9
:10353800C53100080300F0B5060060331B8885B06C
:10354800029303688C36DD691A68040003929A684E
:1035580001923268222A00D0C0E0030068331B8839
:10356800002B00D190E020231D4200D18CE023687D
:103578000298596AA26D0140118021000232A265A9
:103588005E310A88013A92B20A800722DD69154243
:103598002FD0063A154208D00399C90505D5210050
:1035A8001A629031086802430A600222154209D063
:1035B8000199C90706D521001A6290310868921846
:1035C80002430A600422154209D00199C90706D5A9
:1035D8001A6222000223903211680B4313602700FD
:1035E80090373B68002B04D02000FDF733FC002304
:1035F8003B6023005E331B8899B2002BB3D1EFF3F5
:103608001085013383F310882068374F02683A40E9
:10361800026085F31088EFF3108583F31088206823
:10362800324F82683A40826085F3108820223260E7
:10363800226821675268616712020AD5EFF3108188
:1036480083F3108822682A4813680340136081F3C3
:103658001088E36E012B3DD10022E266EFF3108063
:1036680083F3108821680F330A689A430A6080F34D
:1036780010882268D169194200D0136223005C3394
:1036880020001988FFF7F7FB23005E331B889AB2E6
:10369800002B1DD0230068331B88934218D9EFF301
:1036A8001080012282F310882168124D8B682B400C
:1036B8008B6080F31088104B6367EFF3108182F3FF
:1036C80010882023226810680343136081F3108850
:1036D80005B0F0BD2000FDF769FBD5E70822996920
:1036E8000A439A61F4E7C046FFFEFFFFFEFFFFEFC3
:1036F800FFFFFFFBFFFFFFEF9D32000870B50400DE
:103708002569A168036829436569C269294318685E
:10371800494D114328400143196059684748256AB3
:103728000140E06801435960A16998682943444D04
:10373800284001430F209960D96A8143606A014398
:10374800D96240498B4215D103213F4B5B6D0B4039
:10375800013B022B60D83D49C85C80231B029A427A
:103768002FD1082856D8FCF745FE5B550E550B554A
:1037780055550F0036495B18591E8B411801ECE767
:1037880000F092FD4EE0334A616A334B4900100065
:10379800C95AFCF743FE656840006B08C018290049
:1037A800FCF73CFE02002D4B103A9A4232D80F2308
:1037B800020000079A4393B2400F22680343D36084
:1037C80032E0082826D8FCF715FE1A2505251F25FE
:1037D800252522001F48626A1F4B5200D15AFCF768
:1037E8001DFE65686B08C0182900FCF717FE02006B
:1037F8001A4B103A9A420DD82368D86014E000F0AA
:1038080041FE002810D0E6E700F04EFDF9E78020E1
:103818000002E0E7012008E080231B029A42EED173
:1038280000F030FE021EAFD100200D4BA36600232E
:103838006367A36770BDC046F369FFCFFFCFFFFF83
:10384800FFF4FF110038014000100240FC4D000851
:1038580000BCFFBF0024F400004E0008EFFF00008A
:1038680001000100836A30B51A0706D50168284CA3
:103878004A682240846B22434A60DA0706D5016809
:10388800244C4A682240C46A22434A609A0706D5F3
:103898000168214C4A682240046B22434A605A0757
:1038A80006D501681D4C4A682240446B22434A6091
:1038B800DA0606D501681A4C8A682240C46B22438E
:1038C8008A609A0606D50168164C8A682240046CFC
:1038D80022438A605A0610D50168134D4A68446C21
:1038E8002A4022434A6080225203944205D14A6802
:1038F8000E4C2240846C22434A601B0606D502689F
:103908000B4953680B40C16C0B43536030BDC04634
:10391800FF7FFFFFFFFFFDFFFFFFFEFFFFFFFBFF36
:10392800FFEFFFFFFFDFFFFFFFFFEFFFFFFF9FFF3F
:10393800FFFFF7FFF7B504000D001700009322689A
:10394800D3692B405B1B59424B41BB4201D000203D
:1039580026E0089B0133F3D000F098FF009BC01AC3
:10396800089B98422DD8002B2BD023681A68520741
:10397800E5D52A004021403A8A43E0D0DA69082692
:1039880011003140019132420BD020001E62FFF736
:1039980039FA230090331E600023012084342370F9
:1039A800FEBD8022D96912011142C8D01A622000D6
:1039B800FFF728FA2300202290331A60019B8434F1
:1039C80023700320ECE7F0B5070087B0883705932C
:1039D8003B6804000D0016000220202B02D10029AC
:1039E80002D1012007B0F0BD002AFAD08023A268D6
:1039F8005B019A4204D12369002B01D1CB07F0D493
:103A08002300002290331A6021233B6000F03EFF20
:103A1800230054331E8002331E8003938023A26840
:103A2800002604905B019A4204D12369B34201D174
:103A38002E001D00230056331B889AB2002B0CD190
:103A4800059B200000934021049BFFF773FF202370
:103A5800883423600028C5D00CE0059B0022009321
:103A680080212000049BFFF765FF002804D0202355
:103A7800883423600320B5E72268002D10D13388ED
:103A88000236DB05DB0D936221223B68134093422B
:103A9800A7D1039B039A1B88013B9BB21380C9E7FC
:103AA8002B7801359362EFE7030073B50026040015
:103AB80090331E6000F0EAFE236805001B681B07B0
:103AC8001FD58021284B3200009389030300200072
:103AD800FFF730FFB04214D0EFF31081012383F3D6
:103AE80010888020226813688343136081F310884C
:103AF8002300202288331A60032000238434237093
:103B080076BD260023688C361B685B0723D5802189
:103B1800154B0022009320002B00C903FFF70AFF72
:103B2800002818D0EFF31080012282F31088216852
:103B38000E4D0B682B400B6080F31088EFF310805C
:103B480082F3108821688B6893438B6080F3108818
:103B580020233360D0E723002022002088331A6016
:103B68003260E0662067C8E7FFFFFF01DFFEFFFF66
:103B780070B5041E01D1012070BD050088352B6881
:103B8800002B04D1020084321370FFF76DF924234F
:103B9800012122682B6013688B431360A36A002BF2
:103BA80002D02000FFF75EFE2000FFF7A7FD0128E6
:103BB800E1D0236807495A6820000A402A215A6040
:103BC8009A688A439A60012219680A431A60FFF7C3
:103BD8006BFFD1E7FFB7FFFF03005C3370B581656A
:103BE80080241A805A800023816843676401A142B7
:103BF8004CD1036959424B411B02FF33010060312C
:103C08000B8003000021903319602231043B1960B6
:103C1800EFF31084012383F3108801688D682B4328
:103C28008B6084F3108880258021466E8468036940
:103C3800AD054901AE423BD1050068352D88954256
:103C480036D82A4A8C4203D1294A002B00D0274A69
:103C58004267002B0BD0EFF31081012383F3108808
:103C68000268FF3314682343136081F31088EFF36D
:103C78001081012383F31088802302685B05906814
:103C88000343936081F31088002070BD002905D19B
:103C98000169FF230029B1D0803BAFE78024640588
:103CA800A142ABD101697F230029A7D0403BA5E7FA
:103CB800104A8C4203D1104A002B00D00D4A4267AB
:103CC8000122002B0AD0EFF3108182F31088902391
:103CD80002685B00106803431360D3E7EFF31081B9
:103CE80082F31088026820231068F4E77133000813
:103CF8003D350008C53100089D32000803008C30AE
:103D080070B504680220202C25D10138002922D062
:103D1800002A20D080209C684001844205D118697F
:103D2800002802D10130014215D10020D866186858
:103D3800406800020CD5EFF31085012080F310884D
:103D480080201C68C00426683043206085F31088F2
:103D58001800FFF741FF70BDF7B50700436E040078
:103D68006A37002B04D10120388068342080F7BDE1
:103D780003680B4E9A689B680A4D5B0FF05CE95C20
:103D8800C0000192FCF7D4FB019B38801B015B0F3C
:103D9800F05CE95CC000FCF7CBFB80B2E5E7C0460D
:103DA800204E0008184E0008704770477047000002
:103DB80070B504008434227803000220012A11D04F
:103DC8001D002422012688352A601A6811681068A7
:103DD800B043106004480140002058662023116059
:103DE8002B60207070BDC046FFFFFFDFF8B50500EF
:103DF80084350B0029780222012915D006000121FB
:103E08000468883622323260276822688A43226032
:103E1800A168C900C9081943A160FFF79DFF2023C5
:103E28000022276033602A701000F8BDF8B505003D
:103E380084350A0029780223012915D006000121BA
:103E48000468883622333360276823688B432360ED
:103E5800A168064B19401143A160FFF77DFF20239D
:103E68002760336000232B701800F8BDFFFFFFF1B7
:103E7800F0B5040085B0002802D1012005B0F0BDDE
:103E88000368DB0710D423689B075CD423681B07EF
:103E980000D5C1E023685B0700D5F2E0E369002B99
:103EA80000D079E10020E9E73822AF4DAB68134034
:103EB800EA68102B09D1D3439B0708D12B689B03D1
:103EC800E1D56368002BDED1D7E7082BF6D0802236
:103ED80063685202934211D12A6813432B6000F0A1
:103EE800D5FC80270600BF022B683B42CBD100F0EF
:103EF800CDFC801B6428F7D90320BFE7A021C902A5
:103F08008B4208D180232968DB020B432B602B6886
:103F18001A432A60E3E72A6894490A402A602A6813
:103F280093490A402A60002BD9D100F0AFFC8027C2
:103F38000600BF022B683B42A5D000F0A7FC801BFF
:103F48006428F7D9D8E73822874DAB681340EA6868
:103F5800102B28D103210A40022A26D12A685205AB
:103F680003D5E268002A00D187E769686269814859
:103F7800120201400A436A60002B0CD12B687E4A6A
:103F88007E491340226913432B602B687C4A9B04AB
:103F98005B0FDA400A607B4B186800F02FFC0028A2
:103FA80000D173E769E7002BD8D0E368002B20D055
:103FB8002B68714A802713402269FF0013432B6046
:103FC80080232A685B0013432B6000F05FFC060027
:103FD8002B683B4207D06A68636966491B020A403E
:103FE80013436B6052E700F051FC801B0228EFD9A5
:103FF80082E72B68644A802713402B6000F046FC58
:104008000600FF002B683B4200D13FE700F03EFC72
:10401800801B0228F6D96FE73822534DAB6813404E
:10402800182B08D12B6E9B0700D433E7A369002B0C
:1040380000D02FE721E7A2690123002A10D02A6EB9
:10404800022713432B6600F021FC06002B6E3B422F
:1040580000D01FE700F01AFC801B0228F6D94BE7B6
:104068002A6E02279A432A6600F010FC06002B6E7F
:104078003B4200D10EE700F009FC801B0228F6D96C
:104088003AE73822384DAB681340202B08D1EB6D46
:104098009B0700D402E7A368002B00D0FEE6ECE6FD
:1040A80080220021EB6B52050091134208D1EB6B83
:1040B8001343EB63EB6B13400393039B01230093C0
:1040C8008027324E7F0033683B4215D0A368012B0E
:1040D80022D1EA6D1343EB6500F0D8FB02270600F6
:1040E800EB6D3B4238D0009B012B00D0D6E6EB6B42
:1040F800274A1340EB63D1E633683B43336000F053
:10410800C5FB019033683B42E0D100F0BFFB019B47
:10411800C01A0228F6D9EFE6EA6D052B05D1013B56
:104128001343EB65EA6D0123D4E701218A43EA656D
:10413800EA6D03318A43EA65002BCDD100F0A6FB76
:1041480002270600EB6D3B42CDD000F09FFB114BE0
:10415800801B9842F6D9CFE600F098FB0D4B801BE8
:104168009842BDD9C8E6C04600100240FFFFFEFFD6
:10417800FFFFFBFFFF80FFFFFFC7FFFF0C000020D2
:104188000024F40008000020FFFEFFFF007000403C
:10419800FFFFFFEF8813000038213F4DAA680A404F
:1041A800102A51D03D4A022B38D12B688027134062
:1041B8002B6000F06BFB0600BF042B683B4227D145
:1041C800616A236AEA680B43354980260A4013432B
:1041D800E26AB6041343226B1343A26A1202134322
:1041E800EB6080232A685B0413432B608023EA6812
:1041F8005B051343EB6000F049FB04002B68334276
:1042080000D04FE600F042FB001B0228F6D973E607
:1042180000F03CFB801B0228CFD96DE62B68802676
:1042280013402B6000F032FB0400B6042B683342C5
:1042380004D1EB681B4A1340EB6033E600F026FB21
:10424800001B0228F2D957E6012B00D115E60322FC
:10425800E868216A02408A4200D00EE67022616A4C
:1042680002408A4200D008E6FE21A26AC901014044
:104278001202914200D000E6F822E16A920302405D
:104288008A4200D0F9E5236B400F4007C01A431E4D
:104298009841C0B2F2E5C04600100240FFFFFFFEA1
:1042A8008C80C11FFCFFFEEF382370B51D4CA2683F
:1042B8001A4205D123681C489B045B0FD84070BD87
:1042C800A2681A40082A27D0A2681A40102A17D1D3
:1042D800E368E168DB43E5684906490F6F322D0A58
:1042E800013115409B0709D11048FCF797F8E168A0
:1042F8006843490F0131FCF791F8E0E70A48F4E711
:10430800A2681A40202A09D0A26800201340182B5E
:10431800D5D1FA20C001D2E70448D0E780200002B6
:10432800CDE7C046001002400024F40000127A00D5
:10433800F7B504000D00002801D10120FEBD0727B4
:10434800484E33683B408B422AD3226893073BD4BC
:10435800D20748D4072733683B40AB420AD93368B1
:10436800BB432B43336000F091FA019033683B4024
:10437800AB4268D123683C4D5B076CD4FFF794FFD0
:10438800AB683A491B051B0F9B005B581F210B406C
:10439800D840374A374B1060186800F02FFACDE73D
:1043A8003368BB430B43336000F070FA0190336805
:1043B8003B40AB42C9D000F069FA019BC01A2E4BB2
:1043C8009842F4D90320B9E72749530704D5E023D5
:1043D8008868DB0103438B608B6828480340A0682A
:1043E80003438B60B4E760681F4F032829D8FCF7A4
:1043F80001F820021C243B689B039ED50722BB685A
:1044080093430343BB6000F041FA01903823BA6834
:104418001A406368DB009A429CD000F037FA019B8F
:10442800C01A154B9842F1D9CCE73B689B01E5D4FB
:1044380083E73B685B05E1D47FE73B6E9B07DDD4F0
:104448007BE7FB6DFAE700F021FA019BC01A0A4BE3
:1044580098428BD9B6E7AB68094A1340E268134320
:10446800AB608BE70020024000100240484E000875
:104478000C0000200800002088130000FFF0FFFF58
:10448800FF8FFFFF064B07499B68074A5B045B0FDA
:104498009B005B581F2110680B40D8407047C046EE
:1044A80000100240284E00080C0000200023F0B540
:1044B80085B00A681400DC4001D105B0F0BD0125C3
:1044C80014009D402C4000942A4200D191E04A6893
:1044D8005F0094460322644622400324BC40E44320
:1044E8000194541E012C2ED88668019C2640CC6865
:1044F800BC403443846044680126AC4325006446CC
:10450800240934409C402C434460C568019C2540E4
:104518008C68BC402C43C460022A16D107250F269C
:104528001D40AD00AE40DC08A40004190294246AC2
:1045380003962600039CA64334000E69AE4026432A
:10454800029C266201E0032ADFD1BA400468019D7B
:1045580025402A43C02402606246A402224248D071
:10456800254A03259C08A400A4180F221D40ED002D
:10457800AA40A027266EFF0596430022B8420CD019
:104588001E4F0132B84208D01D4F0132B84204D044
:104598001C4F0332B84200D1023AAA406746324360
:1045A8002266154C009A2668009DD2433543FF02C7
:1045B80001D435001540674625606668009D35437F
:1045C800BF0201D435001540674665600E4C009D5A
:1045D800E66F3543BF0301D4350015406746E567EC
:1045E8000A4C009EE56F2E43FF0301D415402E00B0
:1045F800E66701335DE7C04600180240000400503A
:1046080000080050000C005008180240041802402E
:10461800002A01D0816170478162FCE7F0B500286B
:1046280008D0841DE37F411D022B05D00423C363FA
:104638000023CB770120F0BD01230E260268156800
:104648009D43156015681B33B543466C1560326889
:104658000D4D2A403260026C0C4E1A401B3B9340B1
:1046680077683B437360C26C836C5A60036D002BA0
:1046780005D01A682A401A60436D826D5A6001237A
:104688000020E377C877D6E7FFFEFFFF000002406F
:10469800F8B5811DCA7F0123022A03D00422C26310
:1046A8001800F8BD0E251C27026814689C43146086
:1046B8001468AC43456C14602A68104C22402A6088
:1046C800026C0F4D3A4093406E6833436B60C26C86
:1046D800836C5A60036D002B05D01A6822401A605B
:1046E800436D826D5A6001230022CB77431DDA7730
:1046F800836B934200D098470020D2E7FFFEFFFF6C
:104708000000024010B5114C1149236802000B400B
:1047180003432360802300209B009A420ED10D4B57
:104728000D49186806235843FBF778FE8022431C7E
:10473800D200616908001040114200D110BD002B61
:1047480001D0013BF5E70320F8E7C04600700040C0
:10475800FFF9FFFF0C00002040420F0010B5FF24B6
:1047680003220B0021000240D20091409B0123400C
:10477800C943934000280ADBC0240B4A8008800004
:104788008018A40002590A401343035110BD0F2298
:1047980010400838054A800880008018C269114016
:1047A8001943C161F2E7C04600E100E000ED00E016
:1047B800002805DB1F2318401E3B8340014A136075
:1047C8007047C04600E100E08022431E52040120E9
:1047D80093420DD2C021074A07485360036A09066D
:1047E8001B021B0A0B43036200200723906013601F
:1047F8007047C04610E000E000ED00E070B5104BD7
:1048080005001978002901D1012070BDFA20800027
:10481800FBF704FE0B4C01002068FBF7FFFDFFF7D8
:10482800D3FF041EF0D1032DEED802000120290089
:104838004042FFF793FF044B20001D60E5E7C046A8
:10484800040000200C000020080000208023084AF3
:104858005B00116810B50B4303201360FFF7CEFF10
:10486800041E03D1FDF7F6FB200010BD0124FBE771
:1048780000200240034A044B11681B785B18136040
:104888007047C0463814002004000020014B186807
:104898007047C0463814002070B50400FFF7F6FFD3
:1048A8000500631C02D0044B1B78E418FFF7EEFFE9
:1048B800401BA042FAD370BD0400002070470000DE
:1048C8000D488546FFF7FAFF0C480D490D4A0023AD
:1048D80002E0D458C4500433C4188C42F9D30A4AAD
:1048E8000A4C002301E013600432A242FBD3FBF719
:1048F80059FCFCF709FBFEE700200020000000201F
:1049080010000020984E0008100000203C140020E1
:10491800FEE70000F8B5C046F8BC08BC9E467047E4
:0C492800F8B5C046F8BC08BC9E467047BD
:104934004F4E004F464600554E4B4E4F574E005972
:104944004553004E4F004445560048454C500044E2
:10495400455620434D44533A204F4E204F4646205F
:1049640053544154555320414443204641554C54DB
:10497400204E4F4E457C4C4F577C4F564552567CEB
:104984004F56455249204D4F4445204E4F4E457C8D
:10499400574149547C49444C457C434F4C4F527CCD
:1049A400414E494D317C414E494D327C414E494D39
:1049B400337C414E494D340D0A004F4B204445563B
:1049C400204F4E0D0A004F4B20444556204F46467B
:1049D4000D0A00535441545553004445563D00209C
:1049E4005245414C5F4641554C543D002045464696
:1049F4004543544956455F4641554C543D00205269
:104A040045414C5F4D4F44453D0020454646454396
:104A1400544956455F4D4F44453D0020464F52434F
:104A2400455F4D4F44453D004144430045525220AB
:104A3400444556204F46460D0A004641554C540005
:104A44004E4F4E4500434C454152004F4B20444588
:104A540056204641554C54204E4F4E450D0A004CAD
:104A64004F5700554E44455200554E44455256004A
:104A74004F4B20444556204641554C5420554E44F6
:104A84004552564F4C544147450D0A004F56455226
:104A940056004F5645525F56005648494748004F06
:104AA4004B20444556204641554C54204F564552C0
:104AB400564F4C544147450D0A004F564552490044
:104AC4004F5645525F43004F4B20444556204641C4
:104AD400554C54204F56455243555252454E540D51
:104AE4000A0045525220444556204641554C542014
:104AF4004E4F4E457C4C4F577C4F564552567C4F3B
:104B0400564552490D0A004D4F44450053544154F3
:104B140045004C4544005245414C004F4B20444510
:104B240056204D4F4445205245414C0D0A005741F3
:104B34004954004F4B20444556204D4F444520577F
:104B44004149545F484F53540D0A0049444C4500B1
:104B54005245414459004F4B20444556204D4F4443
:104B6400452049444C450D0A004F4B2044455620EE
:104B74004D4F444520434F4C4F520D0A00414E497E
:104B84004D31004F4B20444556204D4F4445204164
:104B94004E494D310D0A00414E494D32004F4B20D4
:104BA400444556204D4F444520414E494D320D0A4F
:104BB40000414E494D33004F4B20444556204D4F44
:104BC400444520414E494D330D0A00414E494D3470
:104BD40000435553544F4D004F4B20444556204DF0
:104BE4004F444520414E494D3420435553544F4D75
:104BF4000D0A0045525220444556204D4F4445204D
:104C04004E4F4E457C574149547C49444C457C4366
:104C14004F4C4F527C414E494D317C414E494D32AF
:104C24007C414E494D337C414E494D340D0A00457B
:104C340052522044455620434D440D0A004F4B0028
:104C440050494E4700504F4E470D0A0053544154AB
:104C540000455252204E4545445F4F4B0D0A004FCC
:104C64004B204F46460D0A00434F554E54004F4BC0
:104C740020434F554E540D0A0045525220434F5580
:104C84004E5420312E2E3330300D0A00425249004A
:104C94004F4B204252490D0A00455252204252497C
:104CA40020302E2E3235350D0A004F4B20434F4C09
:104CB4004F520D0A0045525220434F4C4F5220523E
:104CC400204720420D0A00414E494D004F4B2041E0
:104CD4004E494D204F46460D0A004F4B20414E4948
:104CE4004D205245445F43484153450D0A004F4B04
:104CF40020414E494D205241494E424F570D0A0022
:104D04004F4B20414E494D205245445F425245414C
:104D140054480D0A004F4B20414E494D20435553F2
:104D2400544F4D5F310D0A0045525220414E494DBA
:104D340020302E2E340D0A0045525220554E4B4E33
:104D44004F574E0D0A00444556204155544F5F4F6E
:104D540046460D0A00574149545F484F5354005387
:104D640054415449435F434F4C4F5200414E494DC7
:104D74005F5245445F434841534500414E494D5FAE
:104D84005241494E424F5700414E494D5F524544AE
:104D94005F42524541544800414E494D5F4355538B
:104DA400544F4D5F3100554E444552564F4C54417B
:104DB4004745004F564552564F4C54414745004FC6
:104DC40056455243555252454E540000594D000821
:104DD4004F4B0008634D0008704D00087F4D0008DC
:104DE4008C4D00089C4D0008444A0008AA4D000858
:104DF400B74D0008C34D000804020800010002007A
:104E04000400060008000A000C0010002000400006
:104E140080000001080402040801010101010103EA
:104E24000701000000000000000000000000000076
:104E34000000000001000000020000000300000068
:104E4400040000000000000000000000000000005A
:104E5400000000000000000000000000000000004E
:104E64000000000001000000020000000300000038
:104E74000400000006000000070000000800000015
:044E84000900000021
:084E880024B9FF7F01000000C6
:044E90002D010008E8
:044E94000101000810
:104E980050002C0101000000040000000024F40070
:04000005080048C9DE
:00000001FF
